{
  "_format": "hh-sol-artifact-1",
  "contractName": "Manilla",
  "sourceName": "contracts/manilla.sol",
  "abi": [
    {
      "inputs": [
        {
          "internalType": "string",
          "name": "name_",
          "type": "string"
        },
        {
          "internalType": "string",
          "name": "symbol_",
          "type": "string"
        },
        {
          "internalType": "uint256",
          "name": "amount_",
          "type": "uint256"
        },
        {
          "internalType": "address",
          "name": "adminAccount_",
          "type": "address"
        }
      ],
      "stateMutability": "nonpayable",
      "type": "constructor"
    },
    {
      "anonymous": false,
      "inputs": [
        {
          "indexed": true,
          "internalType": "address",
          "name": "owner",
          "type": "address"
        },
        {
          "indexed": true,
          "internalType": "address",
          "name": "spender",
          "type": "address"
        },
        {
          "indexed": false,
          "internalType": "uint256",
          "name": "value",
          "type": "uint256"
        }
      ],
      "name": "Approval",
      "type": "event"
    },
    {
      "anonymous": false,
      "inputs": [
        {
          "indexed": true,
          "internalType": "address",
          "name": "previousOwner",
          "type": "address"
        },
        {
          "indexed": true,
          "internalType": "address",
          "name": "newOwner",
          "type": "address"
        }
      ],
      "name": "OwnershipTransferred",
      "type": "event"
    },
    {
      "anonymous": false,
      "inputs": [
        {
          "indexed": true,
          "internalType": "address",
          "name": "from",
          "type": "address"
        },
        {
          "indexed": true,
          "internalType": "address",
          "name": "to",
          "type": "address"
        },
        {
          "indexed": false,
          "internalType": "uint256",
          "name": "value",
          "type": "uint256"
        }
      ],
      "name": "Transfer",
      "type": "event"
    },
    {
      "inputs": [
        {
          "internalType": "address",
          "name": "owner",
          "type": "address"
        },
        {
          "internalType": "address",
          "name": "spender",
          "type": "address"
        }
      ],
      "name": "allowance",
      "outputs": [
        {
          "internalType": "uint256",
          "name": "",
          "type": "uint256"
        }
      ],
      "stateMutability": "view",
      "type": "function"
    },
    {
      "inputs": [
        {
          "internalType": "address",
          "name": "spender",
          "type": "address"
        },
        {
          "internalType": "uint256",
          "name": "amount",
          "type": "uint256"
        }
      ],
      "name": "approve",
      "outputs": [
        {
          "internalType": "bool",
          "name": "",
          "type": "bool"
        }
      ],
      "stateMutability": "nonpayable",
      "type": "function"
    },
    {
      "inputs": [
        {
          "internalType": "address",
          "name": "account",
          "type": "address"
        }
      ],
      "name": "balanceOf",
      "outputs": [
        {
          "internalType": "uint256",
          "name": "",
          "type": "uint256"
        }
      ],
      "stateMutability": "view",
      "type": "function"
    },
    {
      "inputs": [],
      "name": "decimals",
      "outputs": [
        {
          "internalType": "uint8",
          "name": "",
          "type": "uint8"
        }
      ],
      "stateMutability": "view",
      "type": "function"
    },
    {
      "inputs": [
        {
          "internalType": "address",
          "name": "spender",
          "type": "address"
        },
        {
          "internalType": "uint256",
          "name": "subtractedValue",
          "type": "uint256"
        }
      ],
      "name": "decreaseAllowance",
      "outputs": [
        {
          "internalType": "bool",
          "name": "",
          "type": "bool"
        }
      ],
      "stateMutability": "nonpayable",
      "type": "function"
    },
    {
      "inputs": [
        {
          "internalType": "address",
          "name": "spender",
          "type": "address"
        },
        {
          "internalType": "uint256",
          "name": "addedValue",
          "type": "uint256"
        }
      ],
      "name": "increaseAllowance",
      "outputs": [
        {
          "internalType": "bool",
          "name": "",
          "type": "bool"
        }
      ],
      "stateMutability": "nonpayable",
      "type": "function"
    },
    {
      "inputs": [],
      "name": "name",
      "outputs": [
        {
          "internalType": "string",
          "name": "",
          "type": "string"
        }
      ],
      "stateMutability": "view",
      "type": "function"
    },
    {
      "inputs": [],
      "name": "owner",
      "outputs": [
        {
          "internalType": "address",
          "name": "",
          "type": "address"
        }
      ],
      "stateMutability": "view",
      "type": "function"
    },
    {
      "inputs": [],
      "name": "renounceOwnership",
      "outputs": [],
      "stateMutability": "nonpayable",
      "type": "function"
    },
    {
      "inputs": [],
      "name": "symbol",
      "outputs": [
        {
          "internalType": "string",
          "name": "",
          "type": "string"
        }
      ],
      "stateMutability": "view",
      "type": "function"
    },
    {
      "inputs": [],
      "name": "totalSupply",
      "outputs": [
        {
          "internalType": "uint256",
          "name": "",
          "type": "uint256"
        }
      ],
      "stateMutability": "view",
      "type": "function"
    },
    {
      "inputs": [
        {
          "internalType": "address",
          "name": "to",
          "type": "address"
        },
        {
          "internalType": "uint256",
          "name": "amount",
          "type": "uint256"
        }
      ],
      "name": "transfer",
      "outputs": [
        {
          "internalType": "bool",
          "name": "",
          "type": "bool"
        }
      ],
      "stateMutability": "nonpayable",
      "type": "function"
    },
    {
      "inputs": [
        {
          "internalType": "address",
          "name": "from",
          "type": "address"
        },
        {
          "internalType": "address",
          "name": "to",
          "type": "address"
        },
        {
          "internalType": "uint256",
          "name": "amount",
          "type": "uint256"
        }
      ],
      "name": "transferFrom",
      "outputs": [
        {
          "internalType": "bool",
          "name": "",
          "type": "bool"
        }
      ],
      "stateMutability": "nonpayable",
      "type": "function"
    },
    {
      "inputs": [
        {
          "internalType": "address",
          "name": "newOwner",
          "type": "address"
        }
      ],
      "name": "transferOwnership",
      "outputs": [],
      "stateMutability": "nonpayable",
      "type": "function"
    }
  ],
  "bytecode": "0x60806040523480156200001157600080fd5b5060405162001f2938038062001f298339818101604052810190620000379190620004c6565b620000576200004b6200013160201b60201c565b6200013960201b60201c565b600073ffffffffffffffffffffffffffffffffffffffff168173ffffffffffffffffffffffffffffffffffffffff1614156200009257600080fd5b6b033b2e3c9fd0803ce80000008214620000e3576040517f08c379a0000000000000000000000000000000000000000000000000000000008152600401620000da90620005c3565b60405180910390fd5b8360049080519060200190620000fb92919062000376565b5082600590805190602001906200011492919062000376565b50620001278183620001fd60201b60201c565b505050506200091b565b600033905090565b60008060009054906101000a900473ffffffffffffffffffffffffffffffffffffffff169050816000806101000a81548173ffffffffffffffffffffffffffffffffffffffff021916908373ffffffffffffffffffffffffffffffffffffffff1602179055508173ffffffffffffffffffffffffffffffffffffffff168173ffffffffffffffffffffffffffffffffffffffff167f8be0079c531659141344cd1fd0a4f28419497f9722a3daafe3b4186f6b6457e060405160405180910390a35050565b600073ffffffffffffffffffffffffffffffffffffffff168273ffffffffffffffffffffffffffffffffffffffff16141562000270576040517f08c379a00000000000000000000000000000000000000000000000000000000081526004016200026790620005e5565b60405180910390fd5b62000284600083836200036c60201b60201c565b806003600082825462000298919062000694565b9250508190555080600160008473ffffffffffffffffffffffffffffffffffffffff1673ffffffffffffffffffffffffffffffffffffffff168152602001908152602001600020600082825401925050819055508173ffffffffffffffffffffffffffffffffffffffff16600073ffffffffffffffffffffffffffffffffffffffff167fddf252ad1be2c89b69c2b068fc378daa952ba7f163c4a11628f55a4df523b3ef836040516200034c919062000607565b60405180910390a362000368600083836200037160201b60201c565b5050565b505050565b505050565b828054620003849062000765565b90600052602060002090601f016020900481019282620003a85760008555620003f4565b82601f10620003c357805160ff1916838001178555620003f4565b82800160010185558215620003f4579182015b82811115620003f3578251825591602001919060010190620003d6565b5b50905062000403919062000407565b5090565b5b808211156200042257600081600090555060010162000408565b5090565b60006200043d62000437846200064d565b62000624565b9050828152602081018484840111156200045657600080fd5b620004638482856200072f565b509392505050565b6000815190506200047c81620008e7565b92915050565b600082601f8301126200049457600080fd5b8151620004a684826020860162000426565b91505092915050565b600081519050620004c08162000901565b92915050565b60008060008060808587031215620004dd57600080fd5b600085015167ffffffffffffffff811115620004f857600080fd5b620005068782880162000482565b945050602085015167ffffffffffffffff8111156200052457600080fd5b620005328782880162000482565b93505060406200054587828801620004af565b925050606062000558878288016200046b565b91505092959194509250565b60006200057360258362000683565b915062000580826200086f565b604082019050919050565b60006200059a601f8362000683565b9150620005a782620008be565b602082019050919050565b620005bd8162000725565b82525050565b60006020820190508181036000830152620005de8162000564565b9050919050565b6000602082019050818103600083015262000600816200058b565b9050919050565b60006020820190506200061e6000830184620005b2565b92915050565b60006200063062000643565b90506200063e82826200079b565b919050565b6000604051905090565b600067ffffffffffffffff8211156200066b576200066a6200082f565b5b62000676826200085e565b9050602081019050919050565b600082825260208201905092915050565b6000620006a18262000725565b9150620006ae8362000725565b9250827fffffffffffffffffffffffffffffffffffffffffffffffffffffffffffffffff03821115620006e657620006e5620007d1565b5b828201905092915050565b6000620006fe8262000705565b9050919050565b600073ffffffffffffffffffffffffffffffffffffffff82169050919050565b6000819050919050565b60005b838110156200074f57808201518184015260208101905062000732565b838111156200075f576000848401525b50505050565b600060028204905060018216806200077e57607f821691505b6020821081141562000795576200079462000800565b5b50919050565b620007a6826200085e565b810181811067ffffffffffffffff82111715620007c857620007c76200082f565b5b80604052505050565b7f4e487b7100000000000000000000000000000000000000000000000000000000600052601160045260246000fd5b7f4e487b7100000000000000000000000000000000000000000000000000000000600052602260045260246000fd5b7f4e487b7100000000000000000000000000000000000000000000000000000000600052604160045260246000fd5b6000601f19601f8301169050919050565b7f616d6f756e7420746f206265206d696e7465642065786365656473203120626960008201527f6c6c696f6e000000000000000000000000000000000000000000000000000000602082015250565b7f45524332303a206d696e7420746f20746865207a65726f206164647265737300600082015250565b620008f281620006f1565b8114620008fe57600080fd5b50565b6200090c8162000725565b81146200091857600080fd5b50565b6115fe806200092b6000396000f3fe608060405234801561001057600080fd5b50600436106100ea5760003560e01c8063715018a61161008c578063a457c2d711610066578063a457c2d71461024f578063a9059cbb1461027f578063dd62ed3e146102af578063f2fde38b146102df576100ea565b8063715018a6146102095780638da5cb5b1461021357806395d89b4114610231576100ea565b806323b872dd116100c857806323b872dd1461015b578063313ce5671461018b57806339509351146101a957806370a08231146101d9576100ea565b806306fdde03146100ef578063095ea7b31461010d57806318160ddd1461013d575b600080fd5b6100f76102fb565b604051610104919061100c565b60405180910390f35b61012760048036038101906101229190610dea565b61038d565b6040516101349190610ff1565b60405180910390f35b6101456103b0565b604051610152919061114e565b60405180910390f35b61017560048036038101906101709190610d9b565b6103ba565b6040516101829190610ff1565b60405180910390f35b6101936103e9565b6040516101a09190611169565b60405180910390f35b6101c360048036038101906101be9190610dea565b6103f2565b6040516101d09190610ff1565b60405180910390f35b6101f360048036038101906101ee9190610d36565b610429565b604051610200919061114e565b60405180910390f35b610211610472565b005b61021b610486565b6040516102289190610fd6565b60405180910390f35b6102396104af565b604051610246919061100c565b60405180910390f35b61026960048036038101906102649190610dea565b610541565b6040516102769190610ff1565b60405180910390f35b61029960048036038101906102949190610dea565b6105b8565b6040516102a69190610ff1565b60405180910390f35b6102c960048036038101906102c49190610d5f565b6105db565b6040516102d6919061114e565b60405180910390f35b6102f960048036038101906102f49190610d36565b610662565b005b60606004805461030a9061127e565b80601f01602080910402602001604051908101604052809291908181526020018280546103369061127e565b80156103835780601f1061035857610100808354040283529160200191610383565b820191906000526020600020905b81548152906001019060200180831161036657829003601f168201915b5050505050905090565b6000806103986106e6565b90506103a58185856106ee565b600191505092915050565b6000600354905090565b6000806103c56106e6565b90506103d28582856108b9565b6103dd858585610945565b60019150509392505050565b60006012905090565b6000806103fd6106e6565b905061041e81858561040f85896105db565b61041991906111a0565b6106ee565b600191505092915050565b6000600160008373ffffffffffffffffffffffffffffffffffffffff1673ffffffffffffffffffffffffffffffffffffffff168152602001908152602001600020549050919050565b61047a610bc0565b6104846000610c3e565b565b60008060009054906101000a900473ffffffffffffffffffffffffffffffffffffffff16905090565b6060600580546104be9061127e565b80601f01602080910402602001604051908101604052809291908181526020018280546104ea9061127e565b80156105375780601f1061050c57610100808354040283529160200191610537565b820191906000526020600020905b81548152906001019060200180831161051a57829003601f168201915b5050505050905090565b60008061054c6106e6565b9050600061055a82866105db565b90508381101561059f576040517f08c379a00000000000000000000000000000000000000000000000000000000081526004016105969061112e565b60405180910390fd5b6105ac82868684036106ee565b60019250505092915050565b6000806105c36106e6565b90506105d0818585610945565b600191505092915050565b6000600260008473ffffffffffffffffffffffffffffffffffffffff1673ffffffffffffffffffffffffffffffffffffffff16815260200190815260200160002060008373ffffffffffffffffffffffffffffffffffffffff1673ffffffffffffffffffffffffffffffffffffffff16815260200190815260200160002054905092915050565b61066a610bc0565b600073ffffffffffffffffffffffffffffffffffffffff168173ffffffffffffffffffffffffffffffffffffffff1614156106da576040517f08c379a00000000000000000000000000000000000000000000000000000000081526004016106d19061104e565b60405180910390fd5b6106e381610c3e565b50565b600033905090565b600073ffffffffffffffffffffffffffffffffffffffff168373ffffffffffffffffffffffffffffffffffffffff16141561075e576040517f08c379a00000000000000000000000000000000000000000000000000000000081526004016107559061110e565b60405180910390fd5b600073ffffffffffffffffffffffffffffffffffffffff168273ffffffffffffffffffffffffffffffffffffffff1614156107ce576040517f08c379a00000000000000000000000000000000000000000000000000000000081526004016107c59061106e565b60405180910390fd5b80600260008573ffffffffffffffffffffffffffffffffffffffff1673ffffffffffffffffffffffffffffffffffffffff16815260200190815260200160002060008473ffffffffffffffffffffffffffffffffffffffff1673ffffffffffffffffffffffffffffffffffffffff168152602001908152602001600020819055508173ffffffffffffffffffffffffffffffffffffffff168373ffffffffffffffffffffffffffffffffffffffff167f8c5be1e5ebec7d5bd14f71427d1e84f3dd0314c0f7b2291e5b200ac8c7c3b925836040516108ac919061114e565b60405180910390a3505050565b60006108c584846105db565b90507fffffffffffffffffffffffffffffffffffffffffffffffffffffffffffffffff811461093f5781811015610931576040517f08c379a00000000000000000000000000000000000000000000000000000000081526004016109289061108e565b60405180910390fd5b61093e84848484036106ee565b5b50505050565b600073ffffffffffffffffffffffffffffffffffffffff168373ffffffffffffffffffffffffffffffffffffffff1614156109b5576040517f08c379a00000000000000000000000000000000000000000000000000000000081526004016109ac906110ee565b60405180910390fd5b600073ffffffffffffffffffffffffffffffffffffffff168273ffffffffffffffffffffffffffffffffffffffff161415610a25576040517f08c379a0000000000000000000000000000000000000000000000000000000008152600401610a1c9061102e565b60405180910390fd5b610a30838383610d02565b6000600160008573ffffffffffffffffffffffffffffffffffffffff1673ffffffffffffffffffffffffffffffffffffffff16815260200190815260200160002054905081811015610ab7576040517f08c379a0000000000000000000000000000000000000000000000000000000008152600401610aae906110ae565b60405180910390fd5b818103600160008673ffffffffffffffffffffffffffffffffffffffff1673ffffffffffffffffffffffffffffffffffffffff1681526020019081526020016000208190555081600160008573ffffffffffffffffffffffffffffffffffffffff1673ffffffffffffffffffffffffffffffffffffffff168152602001908152602001600020600082825401925050819055508273ffffffffffffffffffffffffffffffffffffffff168473ffffffffffffffffffffffffffffffffffffffff167fddf252ad1be2c89b69c2b068fc378daa952ba7f163c4a11628f55a4df523b3ef84604051610ba7919061114e565b60405180910390a3610bba848484610d07565b50505050565b610bc86106e6565b73ffffffffffffffffffffffffffffffffffffffff16610be6610486565b73ffffffffffffffffffffffffffffffffffffffff1614610c3c576040517f08c379a0000000000000000000000000000000000000000000000000000000008152600401610c33906110ce565b60405180910390fd5b565b60008060009054906101000a900473ffffffffffffffffffffffffffffffffffffffff169050816000806101000a81548173ffffffffffffffffffffffffffffffffffffffff021916908373ffffffffffffffffffffffffffffffffffffffff1602179055508173ffffffffffffffffffffffffffffffffffffffff168173ffffffffffffffffffffffffffffffffffffffff167f8be0079c531659141344cd1fd0a4f28419497f9722a3daafe3b4186f6b6457e060405160405180910390a35050565b505050565b505050565b600081359050610d1b8161159a565b92915050565b600081359050610d30816115b1565b92915050565b600060208284031215610d4857600080fd5b6000610d5684828501610d0c565b91505092915050565b60008060408385031215610d7257600080fd5b6000610d8085828601610d0c565b9250506020610d9185828601610d0c565b9150509250929050565b600080600060608486031215610db057600080fd5b6000610dbe86828701610d0c565b9350506020610dcf86828701610d0c565b9250506040610de086828701610d21565b9150509250925092565b60008060408385031215610dfd57600080fd5b6000610e0b85828601610d0c565b9250506020610e1c85828601610d21565b9150509250929050565b610e2f816111f6565b82525050565b610e3e81611208565b82525050565b6000610e4f82611184565b610e59818561118f565b9350610e6981856020860161124b565b610e728161130e565b840191505092915050565b6000610e8a60238361118f565b9150610e958261131f565b604082019050919050565b6000610ead60268361118f565b9150610eb88261136e565b604082019050919050565b6000610ed060228361118f565b9150610edb826113bd565b604082019050919050565b6000610ef3601d8361118f565b9150610efe8261140c565b602082019050919050565b6000610f1660268361118f565b9150610f2182611435565b604082019050919050565b6000610f3960208361118f565b9150610f4482611484565b602082019050919050565b6000610f5c60258361118f565b9150610f67826114ad565b604082019050919050565b6000610f7f60248361118f565b9150610f8a826114fc565b604082019050919050565b6000610fa260258361118f565b9150610fad8261154b565b604082019050919050565b610fc181611234565b82525050565b610fd08161123e565b82525050565b6000602082019050610feb6000830184610e26565b92915050565b60006020820190506110066000830184610e35565b92915050565b600060208201905081810360008301526110268184610e44565b905092915050565b6000602082019050818103600083015261104781610e7d565b9050919050565b6000602082019050818103600083015261106781610ea0565b9050919050565b6000602082019050818103600083015261108781610ec3565b9050919050565b600060208201905081810360008301526110a781610ee6565b9050919050565b600060208201905081810360008301526110c781610f09565b9050919050565b600060208201905081810360008301526110e781610f2c565b9050919050565b6000602082019050818103600083015261110781610f4f565b9050919050565b6000602082019050818103600083015261112781610f72565b9050919050565b6000602082019050818103600083015261114781610f95565b9050919050565b60006020820190506111636000830184610fb8565b92915050565b600060208201905061117e6000830184610fc7565b92915050565b600081519050919050565b600082825260208201905092915050565b60006111ab82611234565b91506111b683611234565b9250827fffffffffffffffffffffffffffffffffffffffffffffffffffffffffffffffff038211156111eb576111ea6112b0565b5b828201905092915050565b600061120182611214565b9050919050565b60008115159050919050565b600073ffffffffffffffffffffffffffffffffffffffff82169050919050565b6000819050919050565b600060ff82169050919050565b60005b8381101561126957808201518184015260208101905061124e565b83811115611278576000848401525b50505050565b6000600282049050600182168061129657607f821691505b602082108114156112aa576112a96112df565b5b50919050565b7f4e487b7100000000000000000000000000000000000000000000000000000000600052601160045260246000fd5b7f4e487b7100000000000000000000000000000000000000000000000000000000600052602260045260246000fd5b6000601f19601f8301169050919050565b7f45524332303a207472616e7366657220746f20746865207a65726f206164647260008201527f6573730000000000000000000000000000000000000000000000000000000000602082015250565b7f4f776e61626c653a206e6577206f776e657220697320746865207a65726f206160008201527f6464726573730000000000000000000000000000000000000000000000000000602082015250565b7f45524332303a20617070726f766520746f20746865207a65726f20616464726560008201527f7373000000000000000000000000000000000000000000000000000000000000602082015250565b7f45524332303a20696e73756666696369656e7420616c6c6f77616e6365000000600082015250565b7f45524332303a207472616e7366657220616d6f756e742065786365656473206260008201527f616c616e63650000000000000000000000000000000000000000000000000000602082015250565b7f4f776e61626c653a2063616c6c6572206973206e6f7420746865206f776e6572600082015250565b7f45524332303a207472616e736665722066726f6d20746865207a65726f20616460008201527f6472657373000000000000000000000000000000000000000000000000000000602082015250565b7f45524332303a20617070726f76652066726f6d20746865207a65726f2061646460008201527f7265737300000000000000000000000000000000000000000000000000000000602082015250565b7f45524332303a2064656372656173656420616c6c6f77616e63652062656c6f7760008201527f207a65726f000000000000000000000000000000000000000000000000000000602082015250565b6115a3816111f6565b81146115ae57600080fd5b50565b6115ba81611234565b81146115c557600080fd5b5056fea2646970667358221220e7a29c7f15e64d89cd747f5aa7be229e567c916c76ed8af291f4c265fe35e3fc64736f6c63430008040033",
  "linkReferences": {},
  "deployedLinkReferences": {}
}